{
  "_format": "hh-sol-artifact-1",
  "contractName": "YieldFarming",
  "sourceName": "contracts/YieldFarming.sol",
  "abi": [
    {
      "inputs": [
        {
          "internalType": "contract BrownieToken",
          "name": "_brownieAddress",
          "type": "address"
        },
        {
          "internalType": "contract TetherToken",
          "name": "_tetherAddress",
          "type": "address"
        }
      ],
      "stateMutability": "nonpayable",
      "type": "constructor"
    },
    {
      "inputs": [],
      "name": "brownieToken",
      "outputs": [
        {
          "internalType": "contract BrownieToken",
          "name": "",
          "type": "address"
        }
      ],
      "stateMutability": "view",
      "type": "function"
    },
    {
      "inputs": [
        {
          "internalType": "uint256",
          "name": "_amount",
          "type": "uint256"
        }
      ],
      "name": "buyTether",
      "outputs": [],
      "stateMutability": "nonpayable",
      "type": "function"
    },
    {
      "inputs": [
        {
          "internalType": "address",
          "name": "",
          "type": "address"
        }
      ],
      "name": "currentStakingStatus",
      "outputs": [
        {
          "internalType": "bool",
          "name": "",
          "type": "bool"
        }
      ],
      "stateMutability": "view",
      "type": "function"
    },
    {
      "inputs": [
        {
          "internalType": "address",
          "name": "",
          "type": "address"
        }
      ],
      "name": "hasStake",
      "outputs": [
        {
          "internalType": "bool",
          "name": "",
          "type": "bool"
        }
      ],
      "stateMutability": "view",
      "type": "function"
    },
    {
      "inputs": [],
      "name": "issueReword",
      "outputs": [],
      "stateMutability": "nonpayable",
      "type": "function"
    },
    {
      "inputs": [],
      "name": "owner",
      "outputs": [
        {
          "internalType": "address",
          "name": "",
          "type": "address"
        }
      ],
      "stateMutability": "view",
      "type": "function"
    },
    {
      "inputs": [
        {
          "internalType": "uint256",
          "name": "_amount",
          "type": "uint256"
        }
      ],
      "name": "stakeToken",
      "outputs": [],
      "stateMutability": "nonpayable",
      "type": "function"
    },
    {
      "inputs": [
        {
          "internalType": "uint256",
          "name": "",
          "type": "uint256"
        }
      ],
      "name": "stakers",
      "outputs": [
        {
          "internalType": "address",
          "name": "",
          "type": "address"
        }
      ],
      "stateMutability": "view",
      "type": "function"
    },
    {
      "inputs": [
        {
          "internalType": "address",
          "name": "",
          "type": "address"
        }
      ],
      "name": "stakingBalance",
      "outputs": [
        {
          "internalType": "uint256",
          "name": "",
          "type": "uint256"
        }
      ],
      "stateMutability": "view",
      "type": "function"
    },
    {
      "inputs": [],
      "name": "tetherToken",
      "outputs": [
        {
          "internalType": "contract TetherToken",
          "name": "",
          "type": "address"
        }
      ],
      "stateMutability": "view",
      "type": "function"
    },
    {
      "inputs": [
        {
          "internalType": "uint256",
          "name": "_amount",
          "type": "uint256"
        }
      ],
      "name": "unStakeToken",
      "outputs": [],
      "stateMutability": "nonpayable",
      "type": "function"
    }
  ],
  "bytecode": "0x60806040523480156200001157600080fd5b50604051620012763803806200127683398181016040528101906200003791906200012f565b816000806101000a81548173ffffffffffffffffffffffffffffffffffffffff021916908373ffffffffffffffffffffffffffffffffffffffff16021790555080600160006101000a81548173ffffffffffffffffffffffffffffffffffffffff021916908373ffffffffffffffffffffffffffffffffffffffff16021790555033600260006101000a81548173ffffffffffffffffffffffffffffffffffffffff021916908373ffffffffffffffffffffffffffffffffffffffff160217905550505062000200565b6000815190506200011281620001cc565b92915050565b6000815190506200012981620001e6565b92915050565b600080604083850312156200014357600080fd5b6000620001538582860162000101565b9250506020620001668582860162000118565b9150509250929050565b60006200017d82620001ac565b9050919050565b6000620001918262000170565b9050919050565b6000620001a58262000170565b9050919050565b600073ffffffffffffffffffffffffffffffffffffffff82169050919050565b620001d78162000184565b8114620001e357600080fd5b50565b620001f18162000198565b8114620001fd57600080fd5b50565b61106680620002106000396000f3fe608060405234801561001057600080fd5b50600436106100a95760003560e01c80638da5cb5b116100715780638da5cb5b14610152578063bd076e6b14610170578063c576e3a91461018e578063cda6b847146101aa578063e73e14bf146101c6578063fd5e6dd1146101f6576100a9565b806305a222a9146100ae57806345bc78ab146100ca578063475da9bf146100fa578063589e3294146101045780638c13454214610134575b600080fd5b6100c860048036038101906100c39190610b37565b610226565b005b6100e460048036038101906100df9190610ae5565b61040f565b6040516100f19190610d40565b60405180910390f35b610102610427565b005b61011e60048036038101906101199190610ae5565b610644565b60405161012b9190610c8f565b60405180910390f35b61013c610664565b6040516101499190610caa565b60405180910390f35b61015a610688565b6040516101679190610c14565b60405180910390f35b6101786106ae565b6040516101859190610cc5565b60405180910390f35b6101a860048036038101906101a39190610b37565b6106d4565b005b6101c460048036038101906101bf9190610b37565b610794565b005b6101e060048036038101906101db9190610ae5565b610a47565b6040516101ed9190610c8f565b60405180910390f35b610210600480360381019061020b9190610b37565b610a67565b60405161021d9190610c14565b60405180910390f35b6000600460003373ffffffffffffffffffffffffffffffffffffffff1673ffffffffffffffffffffffffffffffffffffffff168152602001908152602001600020549050818110156102ad576040517f08c379a00000000000000000000000000000000000000000000000000000000081526004016102a490610d00565b60405180910390fd5b600160009054906101000a900473ffffffffffffffffffffffffffffffffffffffff1673ffffffffffffffffffffffffffffffffffffffff1663a9059cbb33846040518363ffffffff1660e01b815260040161030a929190610c66565b602060405180830381600087803b15801561032457600080fd5b505af1158015610338573d6000803e3d6000fd5b505050506040513d601f19601f8201168201806040525081019061035c9190610b0e565b5081600460003373ffffffffffffffffffffffffffffffffffffffff1673ffffffffffffffffffffffffffffffffffffffff16815260200190815260200160002060008282546103ac9190610dc2565b925050819055506000600560003373ffffffffffffffffffffffffffffffffffffffff1673ffffffffffffffffffffffffffffffffffffffff16815260200190815260200160002060006101000a81548160ff0219169083151502179055505050565b60046020528060005260406000206000915090505481565b600260009054906101000a900473ffffffffffffffffffffffffffffffffffffffff1673ffffffffffffffffffffffffffffffffffffffff163373ffffffffffffffffffffffffffffffffffffffff16146104b7576040517f08c379a00000000000000000000000000000000000000000000000000000000081526004016104ae90610ce0565b60405180910390fd5b60005b60038054905081101561064157600060038281548110610503577f4e487b7100000000000000000000000000000000000000000000000000000000600052603260045260246000fd5b9060005260206000200160009054906101000a900473ffffffffffffffffffffffffffffffffffffffff1690506000600460008373ffffffffffffffffffffffffffffffffffffffff1673ffffffffffffffffffffffffffffffffffffffff168152602001908152602001600020549050600081111561062c5760008054906101000a900473ffffffffffffffffffffffffffffffffffffffff1673ffffffffffffffffffffffffffffffffffffffff1663a9059cbb83836040518363ffffffff1660e01b81526004016105d8929190610c66565b602060405180830381600087803b1580156105f257600080fd5b505af1158015610606573d6000803e3d6000fd5b505050506040513d601f19601f8201168201806040525081019061062a9190610b0e565b505b5050808061063990610e86565b9150506104ba565b50565b60066020528060005260406000206000915054906101000a900460ff1681565b60008054906101000a900473ffffffffffffffffffffffffffffffffffffffff1681565b600260009054906101000a900473ffffffffffffffffffffffffffffffffffffffff1681565b600160009054906101000a900473ffffffffffffffffffffffffffffffffffffffff1681565b600081116106e157600080fd5b600160009054906101000a900473ffffffffffffffffffffffffffffffffffffffff1673ffffffffffffffffffffffffffffffffffffffff1663a9059cbb33836040518363ffffffff1660e01b815260040161073e929190610c66565b602060405180830381600087803b15801561075857600080fd5b505af115801561076c573d6000803e3d6000fd5b505050506040513d601f19601f820116820180604052508101906107909190610b0e565b5050565b600081116107d7576040517f08c379a00000000000000000000000000000000000000000000000000000000081526004016107ce90610d20565b60405180910390fd5b600160009054906101000a900473ffffffffffffffffffffffffffffffffffffffff1673ffffffffffffffffffffffffffffffffffffffff166323b872dd3330846040518463ffffffff1660e01b815260040161083693929190610c2f565b602060405180830381600087803b15801561085057600080fd5b505af1158015610864573d6000803e3d6000fd5b505050506040513d601f19601f820116820180604052508101906108889190610b0e565b5080600460003373ffffffffffffffffffffffffffffffffffffffff1673ffffffffffffffffffffffffffffffffffffffff16815260200190815260200160002060008282546108d89190610d6c565b92505081905550600560003373ffffffffffffffffffffffffffffffffffffffff1673ffffffffffffffffffffffffffffffffffffffff16815260200190815260200160002060009054906101000a900460ff16610a44576003339080600181540180825580915050600190039060005260206000200160009091909190916101000a81548173ffffffffffffffffffffffffffffffffffffffff021916908373ffffffffffffffffffffffffffffffffffffffff1602179055506001600560003373ffffffffffffffffffffffffffffffffffffffff1673ffffffffffffffffffffffffffffffffffffffff16815260200190815260200160002060006101000a81548160ff0219169083151502179055506001600660003373ffffffffffffffffffffffffffffffffffffffff1673ffffffffffffffffffffffffffffffffffffffff16815260200190815260200160002060006101000a81548160ff0219169083151502179055505b50565b60056020528060005260406000206000915054906101000a900460ff1681565b60038181548110610a7757600080fd5b906000526020600020016000915054906101000a900473ffffffffffffffffffffffffffffffffffffffff1681565b600081359050610ab581610feb565b92915050565b600081519050610aca81611002565b92915050565b600081359050610adf81611019565b92915050565b600060208284031215610af757600080fd5b6000610b0584828501610aa6565b91505092915050565b600060208284031215610b2057600080fd5b6000610b2e84828501610abb565b91505092915050565b600060208284031215610b4957600080fd5b6000610b5784828501610ad0565b91505092915050565b610b6981610df6565b82525050565b610b7881610e08565b82525050565b610b8781610e3e565b82525050565b610b9681610e62565b82525050565b6000610ba9603083610d5b565b9150610bb482610efe565b604082019050919050565b6000610bcc602b83610d5b565b9150610bd782610f4d565b604082019050919050565b6000610bef602583610d5b565b9150610bfa82610f9c565b604082019050919050565b610c0e81610e34565b82525050565b6000602082019050610c296000830184610b60565b92915050565b6000606082019050610c446000830186610b60565b610c516020830185610b60565b610c5e6040830184610c05565b949350505050565b6000604082019050610c7b6000830185610b60565b610c886020830184610c05565b9392505050565b6000602082019050610ca46000830184610b6f565b92915050565b6000602082019050610cbf6000830184610b7e565b92915050565b6000602082019050610cda6000830184610b8d565b92915050565b60006020820190508181036000830152610cf981610b9c565b9050919050565b60006020820190508181036000830152610d1981610bbf565b9050919050565b60006020820190508181036000830152610d3981610be2565b9050919050565b6000602082019050610d556000830184610c05565b92915050565b600082825260208201905092915050565b6000610d7782610e34565b9150610d8283610e34565b9250827fffffffffffffffffffffffffffffffffffffffffffffffffffffffffffffffff03821115610db757610db6610ecf565b5b828201905092915050565b6000610dcd82610e34565b9150610dd883610e34565b925082821015610deb57610dea610ecf565b5b828203905092915050565b6000610e0182610e14565b9050919050565b60008115159050919050565b600073ffffffffffffffffffffffffffffffffffffffff82169050919050565b6000819050919050565b6000610e4982610e50565b9050919050565b6000610e5b82610e14565b9050919050565b6000610e6d82610e74565b9050919050565b6000610e7f82610e14565b9050919050565b6000610e9182610e34565b91507fffffffffffffffffffffffffffffffffffffffffffffffffffffffffffffffff821415610ec457610ec3610ecf565b5b600182019050919050565b7f4e487b7100000000000000000000000000000000000000000000000000000000600052601160045260246000fd5b7f596f7520646f6e7420686176652061636365737320746f20706572666f726d2060008201527f74686973206f7065726174696f6e202100000000000000000000000000000000602082015250565b7f596f7520646f6e742068616e74206861766520656e6f75676820616d6f75742060008201527f746f207769746864726177000000000000000000000000000000000000000000602082015250565b7f5374616b696e6720616d6f756e74206d7573742062652067726561746572207460008201527f68616e2030000000000000000000000000000000000000000000000000000000602082015250565b610ff481610df6565b8114610fff57600080fd5b50565b61100b81610e08565b811461101657600080fd5b50565b61102281610e34565b811461102d57600080fd5b5056fea2646970667358221220520b2bc22331fdb624a0cb5ecbd26ef62e25d36609059a682244271fc4a7133964736f6c63430008040033",
  "linkReferences": {},
  "deployedLinkReferences": {}
}